:100000000AC019C018C017C016C015C014C013C04C
:1000100012C011C010C011271FBFCFE5D0E0DEBF56
:10002000CDBF20E0A0E4B0E001C01D93A635B2072B
:10003000E1F77CD1DEC1E4CF00008150E9F70895FB
:1000400042E041A94AE04DA917A9089581B98795D1
:1000500081B9879581B9879581B9000081B9881FD9
:1000600081B9881F81B9881F81B9880F81B9089526
:100070002F933F93CF93DF9344B7433009F447C0A6
:1000800018F4423071F050C0453009F443C0463096
:1000900009F04AC043E041B95AB742B1452B42B9D1
:1000A00043C050B3583058F5E0B3F0E0EA50FC4B91
:1000B00020810AB701FF03C022952F7003C0000002
:1000C000000000008AA1B8DFC0E5D0E030E059911F
:1000D00049A1452319F0822FB9DF03C080E0B6DFC4
:1000E0003F5F40E0C635D40791F7363020F44EA18B
:1000F000463609F4A5DF40B34F5F40BB15C054A19D
:10010000552391F042B944A1415044A90DC041E0AA
:1001100041B90AC085A190DF41A140FF05C041E07F
:1001200041B983E089DF11B9DF91CF913F912F91E0
:1001300008954FE140AB41AB42AB43AB44AB45AB61
:1001400041A140FD02C044E042A942A140A949E1C9
:100150004AA918A94EE14DA9089545B34F5F45BB83
:1001600040FFE3C05EA14FA154130FC044B742301B
:1001700061F410BB49A1469549A947B3415047BB1B
:10018000442319F04FA1465F4FA94EA157A1451333
:1001900001C013A94F5F4EA94E3609F46AC060F43E
:1001A0004230F9F018F44130B1F008954736E9F0E3
:1001B000483609F454C008954D3709F483C020F43B
:1001C000433709F477C00895403809F4A0C0433894
:1001D00009F4A3C00895EE9A40E449A940A14FA9AB
:1001E000089556E057BB44BF089543E044BF4CA177
:1001F000442309F49AC04AA1485F8BA1481708F02C
:1002000094C0841B65E0E9D0482F80FD8EC087A193
:1002100050A1581708F089C08850851B6AE0DDD0CE
:1002200060E170E002C0759567958A95E2F7842FCA
:10023000869590E0E82FF92FE05BFF4F4081542F27
:10024000562309F472C0461B408317A94DA14150A3
:100250004DA948A14F5F48A94FEF44A9089544E034
:1002600044BF48A14E3109F060C042A14C5F42A991
:1002700060CF45E044BF49B346954A5F463508F034
:1002800045E545A9029951C046A141134EC0119AB6
:1002900012B94AE046A941A140FF08C047A1411355
:1002A00044C045A14B5F4BA94AE60AC042DF41E08A
:1002B00041A9089546E044BF47A14423B1F142500B
:1002C00047A9089514BF4AB748604ABF43B74F5F74
:1002D00043BF5DA1541748F513BF4AB74E5F4ABFED
:1002E00051A1513011F54AA101B700FF06C0540FCA
:1002F0005AA94032D1F411BF06C06FEF640F6AA94A
:10030000423099F451BF40A14C5F40A908954AB7CB
:10031000477F4ABF48E047BB08951EA915BB4CB3B1
:100320004F5F4CBB4CB341704CBB089548ED4CBF84
:1003300016BF43E04BBB43E84DBB49E04DBD4FEE1C
:1003400051E057BD46BD42E04BBDF3DE47E04ABD3C
:10035000029B05C046A1442311F0415046A90AB5AD
:1003600001FFFDCF0AB703FF08C042E041B985E0B5
:1003700063DE12B943E041B909C012B943E041B9A3
:1003800085E05ADE42E041B941E042B955B34CB391
:10039000452311F06DDE1FC047A14423E1F043A1C6
:1003A000483088F48BA148DE41B1436041B941B186
:1003B000427041B943A14F5F43A940B3483058F45C
:1003C00041E04CA908C042E042B987A18D3010F04D
:1003D0008C5032DE12B9C1DEB9CF991B79E004C06E
:1003E000991F961708F0961B881F7A95C9F7809574
:0603F0000895F894FFCF10
:0803F600CCAACCCDEEDC4241A3
:00000001FF
