:100000000AC024C023C022C021C020C01FC01EC0FF
:100010001DC01CC01BC011271FBFCFE5D0E0DEBF35
:10002000CDBF20E0A0E4B0E0E3E8F3E402C031910A
:100030003D93A634B207D9F720E0A6E4B0E001C0B2
:100040001D93A135B207E1F763D193C1D9CF4FE139
:100050004BA94CA94DA94EA94FA940AB4FEF42BDAA
:10006000089500008150E9F7089581B9879581B915
:10007000879581B9879581B9000081B9881F81B9B9
:10008000881F81B9881F81B9880F81B908952F937E
:100090003F93CF93DF9300D01F93CDB7DEB744B724
:1000A000433009F446C018F4423041F08DC0453069
:1000B00009F476C0463009F485C086C040B34830A4
:1000C00008F082C0E0B3F0E0E558FC4B4081CF5F20
:1000D000DF4F4883C150D0400AB703FF08C04295A4
:1000E0004F70CF5FDF4F4883C150D04003C0000046
:1000F0000000000084A1B5DF2BE430E0E22FF32FF5
:1001000041912E2F3F2F442361F058A1452339F010
:10011000CF5FDF4F8881C150D040A7DF02C080E0B1
:10012000A4DFF0E021353F0749F740B34F5F40BB04
:100130004BC040A151A1CD5FDF4F58834A93C250BD
:10014000D04088E08EDF24E030E086E08ADF69A1DD
:100150004EE550E0461B510BCE5FDF4F6991788131
:10016000C350D040637077276417750714F041E0DF
:1001700041B9CE5FDF4FE991F881C350D040F5958A
:10018000E795F595E795CD5FDF4FF883EA93C25089
:10019000D04084E066DF11B92150310BB1F614C0B4
:1001A00087A15FDFE9A1F0E0E85FFC4B80810AB73F
:1001B00002FF03C082958F7003C0000000000000A2
:1001C00054DF02C041E041B90F910F910F91DF91CF
:1001D000CF913F912F91089543A1483048F483B5C2
:1001E00040DF41E041B9000011B943A14F5F43A98D
:1001F000089545B34F5F45BB40FF89C059A14AA14F
:1002000054130CC010BB48A1469548A947B34150B0
:1002100047BB442319F04AA1465F4AA952B549A1F8
:10022000541301C013A94F5F49A94336A1F158F4F3
:100230004A3009F118F44130B1F00895453129F1FF
:100240004F3531F108954D3709F443C028F44E3647
:1002500029F1433781F10895403809F449C0433802
:1002600009F44CC00895EE9A40E448A946E047BB23
:1002700045A14AA9089549B346954A5F463510F409
:1002800047A9089545E547A9089542E044BF089568
:1002900043E044BF089544E044BF089545E044BFAF
:1002A000029935C042B54F3F91F547A1475F43BD25
:1002B0004AE642BD089546E044BF42B54F3F39F19A
:1002C00042B5425042BD42B5423009F54FEF42BD02
:1002D000089514BF4AB742604ABF43B74F5F43BF58
:1002E00052A1451314C013BF4AB7485F4ABF0895CF
:1002F0004AB74D7F4ABF48E047BB089519A915BBCF
:1003000046A1442311F016A9089541E046A9089595
:1003100048ED4CBF16BF44E043B943E04BBB43E854
:100320004DBB49E04DBD4FEE51E057BD46BD42E0EB
:100330004BBD8DDE47E04ABD0AB501FFFDCF0AB7D0
:1003400001FF07C011B985E08CDE12B941E041B967
:1003500007C012B9C1E0C1B985E083DE11B9C2B9E5
:1003600055B346A1452311F092DE01C035DF41DFD0
:06037000E1CFF894FFCF7D
:0D0376002C1C0E2F00CCAACCCDEEDC424199
:06038300FF001E0A010A42
:00000001FF
